:020000040003F7
:10C00000103C0020E1EE0300FBEE0300FDEE030018
:10C010000000000000000000000000000000000020
:10C02000000000000000000000000000D5C0030078
:10C03000000000000000000001EF030003EF030018
:10C0400005EF030005EF030005EF030005EF030014
:10C0500005EF03000000000005EF030005EF0300FB
:10C0600005EF030005EF030005EF030005EF0300F4
:10C0700005EF030005EF030005EF030005EF0300E4
:10C0800005EF030057D5030005EF030005EF03009C
:10C090006DD5030005EF030091EE030005EF0300EB
:10C0A00005EF030005EF03000000000000000000A2
:10C0B0000000000000000000000000000000000080
:10C0C0000348854602F0C6FF0048004795C20300BA
:10C0D000103C00200648704502D1EFF3098101E0D1
:10C0E000EFF30881886902380078024A104700009F
:10C0F000FDFFFFFF6DC10300401E00BF00BF00BF7A
:10C1000000BF00BF00BF00BF00BF00BF00BF00BF37
:10C1100000BFF1D170470000401E00BF00BF00BF4C
:10C1200000BF00BF00BF00BF00BF00BF00BF00BF17
:10C1300000BFF1D170470000056885F308884068AA
:10C14000FF2464B2EFF30585002D01D1A646004718
:10C150002546064621273FBAF0B4002400250026D4
:10C160000027F0B4F92040B20047000010B50C469B
:10C17000002802D00120086010BD2168002911D0DC
:10C180001E48421A814212D03C2A0DD201223C3074
:10C190003C310B7803701346521C401E491E3C2B49
:10C1A000F7D904E00E200BE03C2202F017FF00223A
:10C1B0003C21124801F0ACFD1049891E0880002086
:10C1C000206010BD70B505000BD000223C210B484B
:10C1D00001F09EFD094CA41E2188884203D00B204B
:10C1E00070BD0E2070BD3C220449284602F0F6FEC8
:10C1F0002088401C2080002070BD0000827F00202D
:10C200000A4610B501467A4800F08EFF10BD10B501
:10C2100000F0DBFE10BD10B5764C86B01ECC03944A
:10C220006C460EC4002807D0684618DF002803D0EB
:10C230000022114600F078FF0F20800313DF002852
:10C2400003D00022114600F06FFF6B4B48226B4970
:10C25000082002F0F9FD002803D00022114600F06A
:10C2600063FF00200490059001206946087404A82B
:10C2700060DF002803D00022114600F055FF60481F
:10C2800002F0FEFD002803D00022114600F04CFF12
:10C2900006B010BD08B55B48C169B12962D0002461
:10C2A000594903200860152000F08FF80027012568
:10C2B000564E6D05152000F088F8642000F014FE3D
:10C2C000F560642000F010FE7F1C0A2FF2DB50485E
:10C2D0000F2140698903884204D00022114610468C
:10C2E00000F022FF01200007006901218902884235
:10C2F00004D000221146104600F016FF4548009079
:10C30000454B05220321002001F057F9002803D0F6
:10C310000022114600F008FF3B4940483C390860C4
:10C3200001F03FFC01F083FC00281FD00127F560DD
:10C3300001F08CFC002803D00022114600F0F4FE2E
:10C3400020467840FFF767FF00F044F801F0A4FCB6
:10C35000002803D00022114600F0E6FE152000F070
:10C3600034F809E001240021C16199E7012060400F
:10C37000FFF751FF00F02EF803273F03002C04D1F4
:10C38000B86801F065FB00280BD1F56001F01BFCDB
:10C39000002803D00022114600F0C6FE152000F050
:10C3A00014F8B86801F054FB002806D001F03FFCF7
:10C3B000002802D1B86801F012FCBFF34F8F194971
:10C3C0001748C860BFF34F8FFEE7012181400F4837
:10C3D00081607047094A10B548321421082000F0E6
:10C3E000AFFE002803D00022114600F09DFE10BDD4
:10C3F000EFBEADDEB0F00300CFEE0300202F002033
:10C400000FC2030000050040540700500005005013
:10C4100000100010F7D90300E02C00200C000300EE
:10C420000400FA0500ED00E0FFB583B007460020E8
:10C430000C9C8646267805463AE07868A9004118A3
:10C440000A88684682804988C1800022694601A81E
:10C4500065DF002810D1684601780598814226D111
:10C460007046002801D0002200E0022220788918BE
:10C4700041181F2902D90C2007B0F0BD71460029D0
:10C4800008D1401CC0B2411C069B049A21701A546A
:10C4900001208646217806980A18694601A865DFBA
:10C4A0000028E9D1694620780978401820706D1C71
:10C4B0003888A842C1DC7046002804D0207806994C
:10C4C000801B401E88550020D6E7F8B51546069C0F
:10C4D0001E46074602220094FFF7A6FF002806D159
:10C4E00033461022294638460094FFF79DFFF8BDD9
:10C4F000F7B582B00026054616700078144600286D
:10C5000005D02846039900F0CAF8060008D1A8789B
:10C5100000281ED02078039F001D1F2802D90C2060
:10C5200005B0F0BD684679DF0028F9D121780322F3
:10C53000481C20707A5421781922481C20707A54A3
:10C540002078C1196846008800F0A4F821784018C6
:10C550002070E8780223002810D02078039A411C2C
:10C560002170135420780399471C012227700A5424
:10C570002078EA78471C039927700A5468680028D5
:10C5800015D00021415620788C460246C01C0399E4
:10C590001F28C4D8501C20708B5422780A23501CAA
:10C5A00020708B5420786246431C23700A542889DB
:10C5B000002809D028460094062202210830039B57
:10C5C000FFF783FF0600ABD1288A002809D0284650
:10C5D0000094072203211030039BFFF776FF06002B
:10C5E0009ED1288B002809D02846009415221421BA
:10C5F0001830039BFFF769FF060091D1286A0028D5
:10C6000005D02246039900F07FF8060088D1686AB9
:10C61000002805D02246039900F0B5F8060084D121
:10C620002C20405D002806D022462846039900F0C1
:10C63000DCF80600C7D1304672E770B50C4692B000
:10C6400000216A46117007251171002809D0C178B0
:10C6500049070CD502A9FFF74BFF002808D102AE0D
:10C6600000E00026002C0ED0E078002802D02846FA
:10C6700012B070BD01AA0AA92046FFF739FF0028B1
:10C68000F6D10AAA00E00022684603790178304614
:10C6900072DFEDE70870000A487002207047F8B5B5
:10C6A00014780746A01C15460E461F2803D8787834
:10C6B000801C1F2801D90C20F8BD1D20001B80B252
:10C6C0006946864608803019801C7DDF0028F3D13A
:10C6D0003878022805D168460088704501D80921BC
:10C6E00007E078780821002801D0704501D9684614
:10C6F0000088421C3255641CE2B2B1542978801C77
:10C70000081828700020F8BDF8B50D4611780646C7
:10C71000881D14461F2801D90C20F8BD3388072036
:10C72000062BFAD31927FF01BB4202D94D4A934287
:10C73000F3D17288062AF0D3BA4202D9494FBA42DD
:10C74000EBD1484FBB4203D0BA4201D09342E4D868
:10C75000481C052220706A5420781222411C217046
:10C760002A54207841193088FFF794FF2178401827
:10C77000C0B2207041197088FFF78CFF21784018F3
:10C7800020700020F8BD70B5054600790E46801C6B
:10C790001446C0B21178821C8A181F2A01D90C20B5
:10C7A00070BD0A46491C2170401CB0542078FF22FD
:10C7B000411C21703254207881192888FFF76AFFC4
:10C7C00021784018C0B22070AA88002A09D0A96830
:10C7D000002908D0801902F001FC2078297940183E
:10C7E0002070002070BD072070BDF7B582B00298A0
:10C7F0001446806A0F46002832D002980025203067
:10C80000009028E00298816A0C2068430E18217875
:10C8100030794A1C2270C01C785420781622411CA2
:10C8200021703A542078C1193088FFF733FF2178FE
:10C830004018C0B22070B288002A09D0B16800291F
:10C840000ED0C01902F0CAFB207831794018207050
:10C850006D1C0098EDB2007BA842D3D800205FE6A3
:10C8600007205DE6FFFF000038B56849684A488840
:10C8700090420FD04A78674C521CD2B24A70237B48
:10C88000934208D3083175DF002803D0A16900293D
:10C8900000D0884738BD00254D70217C002907D085
:10C8A0003B2176DF002803D0A169002900D088470A
:10C8B00061690029EED068460570884738BD70B5BB
:10C8C000054601461C22534802F088FB4F4C0026C7
:10C8D00026702968002907D00822A01802F07EFBE4
:10C8E000204608307ADF02E0484808307BDF002825
:10C8F00008D1401E608045486670474A0021001DEF
:10C9000000F0AEFE70BD10B54048406800F043FF37
:10C9100010BDF8B53D48103000F06BF800263B4DD7
:10C920003C4C002807D0616900291BD001206A46D1
:10C930001070684615E02878002805D06169002944
:10C9400010D0684606700CE0687800280CD0A1680A
:10C950000022686800F0E2FE002803D0A1690029E7
:10C9600000D088472E70F8BD6168F1E7F8B5294C12
:10C9700002880027254DE689102A18D029464968E3
:10C98000112A21D0122A2DD0502A0FD1C288801D01
:10C99000B2420BD1028B022A08D1C27E837E1002E2
:10C9A0001843C007C00F13D0FFF7B3FFF8BD81884D
:10C9B00069800146154808221631103002F00EFB3E
:10C9C0006F70002EF0D0F8BD0020C04368806F70FB
:10C9D000084600F0E0FE0028F5D0A1690029F2D059
:10C9E0008847F8BD811D09480822103002F0F6FA88
:10C9F000DAE74188054808300288914204D340882C
:10CA0000814201D80120704700207047002C00208F
:10CA1000FFFF0000B830002069C8030030B585B0C2
:10CA2000002822D00388FE4CA34220D0FD4B1B7867
:10CA3000002B1CD0FB4B10255B1C1D705970002473
:10CA400001259A70032269460A8200940194029497
:10CA50000394028A0A808D708C8004A9029103934A
:10CA600000886946A6DF05B030BD0E20FBE7082030
:10CA7000F9E7F0B58BB00446022768460773002635
:10CA800009968784C68408A80A900D46A18A208842
:10CA900009AAA5DF002804D0E16A00291AD0884736
:10CAA00018E06846008CC007C00F13D068460682A5
:10CAB000208803A9A8DF002813D1A97E28461B30AF
:10CAC00001220B0002F0D8FA09460F1C2227292C5C
:10CAD000442E4600FF20FE3069460882208803A9C4
:10CAE000A8DF0BB0F0BD6B461E700BE006221EE007
:10CAF00069460A71029027E0204690470020F0E73F
:10CB00006B461A702B8B022BF2D2EFE76846077048
:10CB10006946A26AF0E7032000E00420694612E0BB
:10CB20000520FBE7298B032905D203220821204693
:10CB3000FFF774FFD5E74178027808021043694691
:10CB4000888003D006200870A26AD5E70720FAE79C
:10CB50000920E3E70322EAE730B585B00D4604007B
:10CB600038D0002D36D06868002833D00020C0436C
:10CB7000AD4B20800FCB049301AB07C3AB48694694
:10CB8000088001A8811E63DF002822D1221D69468A
:10CB90000120A0DF00281CD168468078A0712046C3
:10CBA00000F0CEF8002814D1204600F059F90028F2
:10CBB0000FD12946204600F004F9002809D1686801
:10CBC000A062A868002800D0E062964901200870A1
:10CBD000002048E70E2046E73EB5002828D000296F
:10CBE00026D0826A002A23D00A88102A21D0112A4E
:10CBF00030D0502A1FD0512A1AD10A460446891D26
:10CC00000878022814D14888238A984210D1907A53
:10CC100004280DD006280BD0052809D02046891CF1
:10CC2000FFF727FF002803D0E16A002900D08847DA
:10CC30003EBD898810E0CB8802899342F8D1082252
:10CC40006B461A708A7F1A7120310291826A694696
:10CC500090473EBD0021C94301803EBDF0B585B07F
:10CC60000A4605002DD028886D4988422BD06D4892
:10CC70000078002827D06B4C1020641C20700720FF
:10CC800060700127A7700321684601820026E11C1D
:10CC9000104600F04CF801466846008A09186846BC
:10CCA00001820096019602960396298A0180877078
:10CCB000868004A80394029028886946A6DF05B000
:10CCC000F0BD0E20FBE70820F9E7F0B585B00A4675
:10CCD000050028D028885249884226D0514800783B
:10CCE000002822D04F4C1120641C20700127684678
:10CCF00007820026611C104600F019F801466846BC
:10CD0000008A0918684601820096019602960396E9
:10CD1000298A01808770868004A80394029028885D
:10CD20006946A6DFCBE70E20C9E70820C7E70870F1
:10CD3000020A4A70020C8A70000EC8700420704704
:10CD400030B58FB005461C21684602F060F969468F
:10CD5000087804210843694608700024019403946C
:10CD6000049405940694A87908A988702F48694608
:10CD7000801C0884601C00070794000F0C7710309B
:10CD800048778A7FF9200240F720921C0240EF206A
:10CD90000240012002438A77142109A802F037F9E2
:10CDA00008A8099007A80A9069468C851420CC85AC
:10CDB00008860D942B46A888083309AAA2DF0FB075
:10CDC00030BDF0B58FB00F4605461C21684602F015
:10CDD0001EF968460178022631430170002401944F
:10CDE0000394049405940694A97908A881700F49C6
:10CDF0006846091D0184601C0107090F684610314F
:10CE0000079401770020014668464177817FF92029
:10CE10000140F720891C0140EF200140012007E07C
:10CE2000FFFF0000182C0020C0F0030030150000A8
:10CE3000014368468177142109A802F0E8F808A8A0
:10CE4000099007A80A9068468685C48506860D97CE
:10CE50002B46A888203309AA6946A2DF0FB0F0BD8F
:10CE600030B58FB005461C21684602F0D0F86946FF
:10CE700008780821084310221043694608700024EE
:10CE800001940394049405940694A87908A98870E1
:10CE9000144869460884601C00070794000F0C774B
:10CEA00010304877887FF9210840F721801C08401E
:10CEB00010430121084369468877142109A802F02C
:10CEC000A6F808A8099007A80A9069468C8517203B
:10CED000CC8508860D942B46A888103309AAA2DFBA
:10CEE0006DE700003115000031B5054C04E0401E2F
:10CEF00000902046FFF700F900980028F7D138BDD0
:10CF0000E703000018225043854A00218018017170
:10CF100081604161022281610261C160704770B528
:10CF20007F4C182221780F2051430A197D49167928
:10CF30005369121D4D68022E0ED0042E0BD1B0067F
:10CF4000006981B2184602F033F8401928DF002842
:10CF500001D10121A17070BDA802556851692D1A37
:10CF6000091892681818101801229202954202D2EC
:10CF7000AA0829DFEBE7FF22013229DFE7E7F8B54E
:10CF8000674C069E65780A2D1DD027787D19EDB275
:10CF90000A2D01D30A3DEDB218277D432D192871C2
:10CFA000AA6103C9EE60AB6069612861A1780020C5
:10CFB000002904D1FFF7B3FF112800D100206178C8
:10CFC000491C6170F8BD0420F8BDF8B5544C00222E
:10CFD000A17801293ED10023A37006462146087896
:10CFE0001827054678434118022E03D0032E31D16D
:10CFF0000D202CE04B484668761C46608968B602D6
:10D000008E4214D343606078401E6070681CC0B2CA
:10D0100020700A2801D30A382070182068430119AB
:10D020001046091D00F06BF82846FFF76BFF60788B
:10D0300000280FD0A07800280CD1FFF770FF00283F
:10D0400008D0112806D02178182251430919091D4A
:10D0500000F055F8F8BD70B50024324E30487460C9
:10D0600004704470847025462846FFF74BFF6D1C02
:10D070000A2DF9D32B4934600020083174608200F6
:10D08000401C8C500228FAD3002070BD10B5254BEF
:10D090001A68022A09D00A601C4691000834006808
:10D0A0006050521C00201A6010BD042010BDF8B55D
:10D0B00007461D4616460C46084600F01AF800289A
:10D0C0000CD0601900F015F8002807D0334622462E
:10D0D000394602200095FFF752FFF8BD1020F8BD39
:10D0E00008B50B460022014604200092FFF747FFD7
:10D0F00008BD800701D0002070470120704738B577
:10D100000C46E268074B920008339D580978626824
:10D110000092024620460C306369A84738BD0000E3
:10D12000D4300020202C0020BFF34F8F0349024849
:10D13000C860BFF34F8FFEE70400FA0500ED00E082
:10D1400030B5CB0008339DB293070024002B01D0EB
:10D15000072030BD574B9A605219DA605C701C7022
:10D1600058809980002030BDF7B5524C82B060885D
:10D170000F4681426ED80020694608704F494E4ED6
:10D180004868C005C00D18D0103840B2002807DA32
:10D190000207120F083A920892005118C96904E078
:10D1A0008108474A8900891809688007C00EC14074
:10D1B0000806850F012D01D10AE00425684636DFF7
:10D1C00002280CD0002803D000221146FFF7ACFF44
:10D1D00022786078A188884203DA401C02E072B6A7
:10D1E000F6E70020C0B2904207D0667860788842A7
:10D1F00001DA401C00E000206070012D0BD062B607
:10D200006846007837DF022805D0002803D00022C6
:10D210001146FFF789FF2848864219D0A068F5001B
:10D2200004994151029900290CD0002F0AD060883E
:10D230003A464643E068301801F0D0FEA06828184E
:10D24000878002E0002128188180002005B0F0BD11
:10D250000420FBE70920F9E70EB504E06846818861
:10D26000029A0098904702AA01A9684600F003F8C4
:10D270000028F3D00EBD70B50E4B05241D785E78E6
:10D28000AE4215D01D781C789E88B44201DA641C29
:10D2900000E000241C705C88DE686C43A419046004
:10D2A0009B68E800C418A4880C80185800241060FB
:10D2B000204670BD302C0020FFFF000000ED00E094
:10D2C00000E400E08307FF22DB0E9A408907090E85
:10D2D000994000280BDA0007000F08388308FB4844
:10D2E0009B001818C36993430B43C36170478308BD
:10D2F000F7489B001B181868904308431860704754
:10D3000070B50124F34960040860F3494010886057
:10D31000F14940398860F14D6C602F20FEF7FCFE2A
:10D32000AC60EF4D00242F206C61FEF7F5FE2C71F0
:10D3300070BDF0B5EA4F2421BC6841430D1939692D
:10D340004A1C09D024224A4316196B68726893421A
:10D3500004D8D21A726029623861F0BD0A4602E030
:10D360000A46396A9B1B4E1C0BD024264E433719A4
:10D370007E689E42F4D324264E4336197768FF1AFE
:10D3800077606B60296224214A4311190862F0BD5D
:10D3900070B5D34C2269A5681346114606E0814258
:10D3A00007D00A46242671434919096A4E1CF6D152
:10D3B00070BD002EFCD08A420CD124204343581962
:10D3C000006A2061401C05D1C44B012098600023F5
:10D3D00063616071242041434819242341685A4302
:10D3E000006A52191062421CE2D0242250434019B4
:10D3F00042685118416070BDF8B5B94C2569681C88
:10D4000035D0B848002640686169401A07023F0AD3
:10D4100019E024204543A0682A185068B84214D85F
:10D42000A3693F1A8619156A002B09D0D169906942
:10D430009847002807D000221146FFF775FE02E04A
:10D440009169D0698847681CE3D1A178E07881426E
:10D4500006D1401CC0B2E070022801D10020E0706B
:10D460009F490006800D1C310E5000F0BDF9F8BD3B
:10D47000F8B504469A4800270169009146785CE0B7
:10D480009748F100C2688D1851E0601C07D0944A9B
:10D4900024209268604321468018046A24E028789A
:10D4A000182141436A68401CC0B252182870A978FC
:10D4B000884200D12F708A4B516824209B684843D2
:10D4C000C0181378012B34D1037D002B31D1936820
:10D4D0008360D368C360136903615269C261804A83
:10D4E0005279002A00D087607D4B82685B6996463E
:10D4F0009C46D31A1A027C4B120A9A4202D2C36883
:10D50000D21808E0724663469A1A1202C368120AD9
:10D51000934202D99A1A426000E047608760012274
:10D52000C7600275921E02620846FFF702FF601C88
:10D53000ABD1287869788842A7D13046761EF6B2FA
:10D5400000289DD1664801690098814201D00120E0
:10D55000F8BD0020F8BD654900200860486088607B
:10D56000C860624940390860486045E7FEB5002060
:10D57000C0435B4D02906869019068462E6900F0D7
:10D5800038F9074600F052F90446002F08D002AAE5
:10D590000199009800F092F90298FFF769FF06E000
:10D5A0000298FFF765FF002801D1002C02D0304619
:10D5B00000F0ADF900206871FEBDFFB598070024AA
:10D5C00081B01E4615460F4600280BD1002E09D00B
:10D5D000FFF796FE42490A9888610F703246002094
:10D5E0008E6008E0072005B0F0BD24234343D454E7
:10D5F0009B181C75401CB842F7DB24204743BB191D
:10D60000032048700F461846CB6019461830002298
:10D6100018232E465E43D3005B181C705C709D700F
:10D6200058603018521C032AF5DB0020C0433861D3
:10D63000BC70FC7001242E482405046003211420D2
:10D64000FFF740FE234880380460264C0198A06014
:10D6500003211120FFF736FE606878610020C2E7E1
:10D6600070B51F4CA568002D06D0002A06D00028F2
:10D6700004D00023247809E0082070BD072070BD85
:10D6800024265E43AE5D002E04D05B1CA342F7DB74
:10D69000042070BD242401265C432E55641961705A
:10D6A000A2610360002070BD08494868C005C00D34
:10D6B0002ED0103840B200281CDA0207120F083AA8
:10D6C000920892005118C96919E0000000ED00E0CD
:10D6D00000E400E080E100E0401301400010014060
:10D6E000402C002000150140FFFF7F004011014049
:10D6F00080E200E08108B24A890089180968800741
:10D70000C00EC1400806800F012803D0032803D0B3
:10D71000022070470020704701207047FEB5044684
:10D72000A848174682680D46002A0CD001788C4222
:10D7300001D2052D01D20720FEBD214624235943E5
:10D74000535C012B01D00820FEBD881840780128C9
:10D750001DD00026FFF7A8FFC0009A490190C968B4
:10D760004018694600F019F9002812D00121017013
:10D770009549446049680830E2C092490198C968F7
:10D7800041180098487000F02FF80020FEBD2E468A
:10D79000E0E70420FEBDF8B58A4D0446A8680028DD
:10D7A00009D029788C4201D30720F8BD2421614398
:10D7B000405C012801D00820F8BDFFF775FFC600C6
:10D7C000E8686946301800F0E8F800280AD002211D
:10D7D00001704460E86831180098487000F004F85F
:10D7E0000020F8BD0420F8BD01207849000508603C
:10D7F000704710B5734900238A78CC78A24212D0C2
:10D80000521CD2B28A70022A00D18B708A786D4B7A
:10D8100092001C339A580260486910180002000AEE
:10D820004861012010BD0360002010BDF8B56548B7
:10D8300001690091457833E06248E900C0680E183C
:10D8400034782AE0182060437168641C0818B178A5
:10D85000E4B2A14200D100240178022902D00329B8
:10D860001BD113E0574A40682421926841438F1826
:10D87000397D002911D0FFF78BFD002038750CE0B1
:10D8800024277843C0180275006A03E04D4900223E
:10D890008B680869471CF3D108617078A042D1D128
:10D8A00028466D1EEDB20028C6D146480169009891
:10D8B000814201D00120F8BD0020F8BDF7B5414CF0
:10D8C0000025A76823691EE024215943C9194E6821
:10D8D000864202D9301A486017E0801B751900266D
:10D8E0004E600E750E699C460B6AB646002E0AD035
:10D8F000019E76193602360A8E607646CE6016682C
:10D900000E6261461160591CDED12361FEBDF8B57F
:10D910002C4801694A1C3DD0242251438268891851
:10D920004E6829494C6847690079E11B0D022D0AB0
:10D93000ED1C002815D10120254A00045060244A1E
:10D94000403A506021494000803108602149086018
:10D950002149012008602F20FEF7DEFB1949012034
:10D960000871B54200D23546E81900021649000A8E
:10D970004031086014494968001B091B0902090A63
:10D980000002000AC91C814203D901200F4940044A
:10D990000860F8BDFFF7B4FCF8BD42788378521CEC
:10D9A000934200D100220378934201D100207047B6
:10D9B0000A604168407818225043081870470000F8
:10D9C00000E400E0402C00200015014000E200E0EF
:10D9D0004013014000E100E00010014010B5044692
:10D9E000082904D0002211461046FFF79DFB21684C
:10D9F0006068884710BD1CB501910090024A08215B
:10DA00006846FFF7B1FB1CBDDDD9030010B5B74870
:10DA10000378012B02D1022900D10170100003D03C
:10DA200000221146FFF780FB10BD10B5AF4C48DF58
:10DA3000002803D000221146FFF776FBFFF70CFC0D
:10DA40002078022803D0032801D00428EFD110BD8C
:10DA500038B50068401C19D00024684600F04EF923
:10DA600000980178012910D1418800290AD08168E5
:10DA7000032000038068002200F04AF900994988D9
:10DA8000814201D1012400E00024204638BD10B5B8
:10DA9000044696481C21001DFFF722FB002803D0F6
:10DAA00000221146FFF740FB904800231C2221462C
:10DAB000001DFFF7FCFA002803D000221146FFF7F3
:10DAC00033FB10BD0FB4F8B5684600F017F968468F
:10DAD000027E418B0123854CFF258548002A12D008
:10DAE000012A16D0032A2AD00021022A36D0052A7C
:10DAF00046D0042A4ED0062A01D104202070F8BC5A
:10DB000008BC04B018474180099981600370057111
:10DB100010E04180089A07998918099A891881604C
:10DB2000A521017005710799C160089942610161E1
:10DB30000A99816123706E48FFF7A9FFDFE700991A
:10DB40000A7802704A88428089688160AA2101713E
:10DB50000799C1600899016109990BE0009A16784C
:10DB6000A52E09D00670568846809268826005719D
:10DB7000C16001614161DDE7418081600570F6E7C8
:10DB800000F028FD002803D000221146FFF7CCFA50
:10DB90000320B3E741808160057000990979017124
:10DBA000C9E70EB5534A6B4607CA07C3FFF753FAD6
:10DBB000002807D14D49FF208002091D48606846B2
:10DBC000FFF764FA0EBD10B500F0B8F9002805D1D2
:10DBD00000F0E5FE0446FFF728FF204610BD70B5B3
:10DBE00011DF002803D000221146FFF79DFA4249B9
:10DBF00000200A68404B012180330C4684401442C7
:10DC000004D0C506ED0E0C46AC401C60401C20281C
:10DC1000F3D303242403A06813DF002803D00022D9
:10DC20001146FFF781FAA06800F06EF870BD08B5E4
:10DC3000684600F063F800980178A52904D00079BF
:10DC4000AA2801D0002008BD012008BD10B500F0B1
:10DC50006FFB002803D100F04BFB00281BD0642091
:10DC6000FFF742F900F0EAFA002803D0002211463B
:10DC7000FFF75AFA00F05CFB002803D0002211469F
:10DC8000FFF752FA00F014FB040003D00022114603
:10DC9000FFF74AFA204610BD00B5164987B0142296
:10DCA0000C3101A801F09AF90598009001A80FC85D
:10DCB000FFF708FFFFF7B9FE002007B000BD38B539
:10DCC0000446684600F01AF80098017821704188EF
:10DCD00061808168A16001792171C168E160016999
:10DCE0002161416961618069A06138BD642C0020B7
:10DCF000C8310020D0F0030000E100E001490160DC
:10DD00007047000000FC030010B5FEF715FA10BDC7
:10DD100010B50446002A02D01088002210E00A48FC
:10DD2000FBE7030A00020343A05C584003061B0FF5
:10DD300043401803584083B21806C00C5840521C88
:10DD40008A42EED310BD0000FFFF000070B5FA4C10
:10DD50001E4660781546022902D0042916D108E033
:10DD6000052813D1A369002B10D032462946042080
:10DD70000BE002280AD1F148406880470320607018
:10DD8000A369002B02D0324629469847280003D0C9
:10DD900000221146FFF7C8F970BD00B5E64987B00B
:10DDA000012008700520694608710598009001A8B7
:10DDB0000FC8FFF787FE07B000BD10B5DE4C207816
:10DDC000002801D0082010BD2069FFF7E4FC0028DE
:10DDD00003D000221146FFF7A7F90F210022890482
:10DDE0002069FFF79BFC040003D000221146FFF7D7
:10DDF0009BF9204610BDD04910B5CF482431416170
:10DE000002214170C1682430FFF76AF9002803D06D
:10DE100000221146FFF788F910BDC74910B5C64862
:10DE20001C314161022141700320000380680F21F1
:10DE30008903081A4108C0481C30FFF751F900282F
:10DE400003D000221146FFF76FF910BD704700B5EF
:10DE500087B01422BA4901A801F0C0F805980090D3
:10DE600001A80FC8FFF72EFEA5E700B587B0012176
:10DE700068460171B04881886846C180032000036C
:10DE800080680590AD4850384168029181680391DF
:10DE9000C0680490059800900A46049B0299019876
:10DEA000FFF710FE002086E730B5A44CA248503C96
:10DEB00087B02430E168FFF713F9002803D000226F
:10DEC0001146FFF731F99C48E2681C304168002395
:10DED0000830FFF7ECF8050012D1142101A801F079
:10DEE00096F8002168460171934881886846C18090
:10DEF000E06804900598009001A80FC8FFF7E2FDC4
:10DF0000284607B030BD00B587B0032168460171CF
:10DF1000894881886846C1808848503841680291A4
:10DF200081680391C0680490059800900A46049B9C
:10DF300002990198FFF7C6FD00203CE73EB5804AF4
:10DF40006B46143207CA07C37B4D0024AC702946C8
:10DF5000AC8024316846FFF799F8002801D06C7036
:10DF60003EBD032074490003806824314860243991
:10DF70000A46526ACA610F218903091A49084018E2
:10DF80006D49704A1C3148606B4800211030FFF722
:10DF900067FB002803D000221146FFF7C5F80F21C8
:10DFA000002289042869FFF7B9FB002803D000226A
:10DFB0001146FFF7B9F80120AC60687000203EBD43
:10DFC0005D498861704770B542685C481468536861
:10DFD00091685038D26804604360C2608160007804
:10DFE000440701D5840705D19C0703D18C0701D1D3
:10DFF000940701D0062070BD5B189A184E4D0F2370
:10E000009B02EA60994213D84F49504B4B4CC607CC
:10E0100009D08868181A90420AD34D4820604D48AC
:10E0200060604D480FE08968591A4908914201D251
:10E030000C2070BD4949216049496160800701D5C4
:10E04000484800E04848A0606878012802D00826C7
:10E05000304670BDFFF7B1FE0600FAD12168E868CE
:10E060008847F5E770B5050004D0287A800703D00B
:10E07000102070BD0E2070BD2F4C6078032803D097
:10E08000042801D0052801D0082070BD6868E16827
:10E090008600A0688019884204D90020C043A0608F
:10E0A0000C2070BDFFF789FE0028FAD1A96832461E
:10E0B000A3686069FEF7FBFF0028F2D1A168891907
:10E0C000A160E2689142ECD0092070BD10B51A4CF5
:10E0D0000820A168002900D010BD61780429FBD177
:10E0E0001648A178403800F069F9002802D00021D4
:10E0F000A17010BD0521617010BDF8B50E4C07462A
:10E100006078032804D0042804D008252846F8BDE8
:10E1100004206070A068002801D00820F8BDFFF737
:10E120004CFE0500FAD178688600A0788119402954
:10E130001CD90920F8BD0000702C002034320020CA
:10E14000F0F003009BDD03000030000000C003007E
:10E15000F7DD03004FDE03006BDE03001BDE030070
:10E160004DDE030007DF0300A9DE0300914AB96812
:10E170001018324600F032FFA0788019A070C5E771
:10E1800010B58D4C6078052813D1E168A0688842ED
:10E190000FD106206070FFF710FE002808D16069DB
:10E1A000E168406800F044F9002801D1072161705E
:10E1B00010BD082010BD10B57F484178072901D057
:10E1C000082010BD0069FFF7E6FA002803D00022FE
:10E1D0001146FEF7A9FF774840308068804710BDA0
:10E1E00000B587B00620694608710598009001A81F
:10E1F0000FC8FFF767FCDEE5F8B51C4617460D466D
:10E20000064600F0C1F8002817D00120000385421F
:10E2100007D92346291B301B1A46FFF7EDFF0028BC
:10E220000BD13A462946304600F0B9F8002804D10F
:10E230003A462946304600F0A7F8F8BDF0B589B057
:10E240006846FFF73CFD039800282AD00121090306
:10E25000069A4018904226D9501A45081046039A4B
:10E260000C4687180246680016180019079003200C
:10E2700000038068039988420DD261190846042280
:10E2800000F08DF800280CD121460422084600F049
:10E2900086F8002805D1BA1B2B4630460799FFF7B0
:10E2A000ABFF09B0F0BD039A069800F078F8F8E7E4
:10E2B00000B58BB004A8FFF702FD089800280DD028
:10E2C000079800280CD007990A984018019000215F
:10E2D0000898009180080290684618DF0BB000BDD6
:10E2E0000320000380680F218903091A4908ECE71D
:10E2F00000B58BB004A8FFF7E2FC08980028EDD029
:10E300000F210798890300280CD0079A0A980191D9
:10E3100080180290032208980092800803906846B3
:10E3200018DFDBE70320000380680A1A5208EEE7D3
:10E3300030B58FB06846FFF7C2FC0398002814D0B0
:10E3400001210903069A4018904214D9501A430833
:10E350001046039A5C0082180019611803242403F4
:10E36000A468039DAC4202D20E200FB030BD121A39
:10E37000FFF742FFF9E703200BAB07C303988008C0
:10E380000E900BA818DFF0E71FB50323019090084B
:10E39000039000930291684618DF04B010BD1FB5CA
:10E3A000012301909008039000930291684618DFC2
:10E3B000F3E70000F4310020702C002070B5002538
:10E3C0000C290ED304464318008941000919581A34
:10E3D0000A38C2B21E48022A027002D30A318B42A6
:10E3E00001D2092070BD1B4800F0F8FD1A491B48F6
:10E3F0000A88824202D02388934217D149888142F9
:10E4000002D06088884211D1144A0323521E208909
:10E410001B03A8420AD9690009194989914203D00E
:10E420009E896D1CB142F4D1002070BD0B2070BDDF
:10E4300010B50022FFF76CFC064A517812780902E9
:10E440001143884201D00B2010BD002010BD0000F8
:10E450009C2C00204032002080100010FFFF0000A4
:10E4600008280CD004DC002807D006280FD108E0CB
:10E470000B280AD00C280AD105E0012070470220A1
:10E4800070470320704704207047042901D00620FC
:10E4900070470520704770B515460A46032823D0FB
:10E4A000042820D1FC4C002906D0E088FB49884292
:10E4B00019D0132176DF10E0284600F019FC00285F
:10E4C00003D000221146FEF72FFEA069A8420AD110
:10E4D00001220321F248FEF7A1FA002803D000220E
:10E4E0001146FEF721FE70BD01211046FFF7B8FF6F
:10E4F00002460121EEE7F0B5054608790E4685B0E3
:10E5000081070CD0032211462846FEF787FA00281F
:10E5100003D000221146FEF707FE05B0F0BDDE492C
:10E520000090143100F0BDFB010011D1DA4CB1684C
:10E53000009A606900F052FD009800F00CFC0100A8
:10E5400006D120466946143000F011FC010003D0CA
:10E55000284600F0EFFAE0E70420019000988008D8
:10E5600002906069039001A8FFF77CFD07000BD0C3
:10E57000092F10D0606900F0BBFB010002D02846D3
:10E5800000F0D8FA3946E3E7307921694018206174
:10E590006069A061C1E73079216941182161607823
:10E5A0000028BAD06089401E0004000C6081B4D1FC
:10E5B0002846FEF78AFB002803D000221146FEF70A
:10E5C000B3FD20896081A8E710B500221146FEF74F
:10E5D000ABFD10BD10B5B04C01202070E088AF49F4
:10E5E000884208D0132176DF002813D0002211467C
:10E5F000FEF79AFD0EE0A07800280BD074DF00280B
:10E6000003D000221146FEF78FFD152000F060FABE
:10E610000020A070FEF777F9002803D000221146F1
:10E62000FEF782FD002010BD70B50D780446012074
:10E63000994A2B0000F020FD0A2B30430613205787
:10E640005C466012FFF79CFD0421FFF709FF0246BC
:10E6500004212EE000221146FEF766FD70BDFFF793
:10E66000B9FF002803D000221146FEF75DFDFFF739
:10E67000A2FD002808D170BDFFF7ACFF002803D031
:10E6800000221146FEF750FDFFF7AAFD70BD107184
:10E6900088680078507170BD022010718868007819
:10E6A0000128F8D1FFF712FD0221FFF7D9FE02463B
:10E6B00002212046FEF7B2F90028CBD170BD03201D
:10E6C000107170BD12792046012A06D0022A07D0A7
:10E6D000032AF6D1FFF70FFF70BD00F03EFA70BDC0
:10E6E00000F079FA70BD507088881081508170BD3B
:10E6F00000205070108170BD20461169FEF7AEFAFF
:10E70000DAE710B5044666488EB0817968468170B4
:10E7100064490180302101A800F079FC022168469B
:10E72000017100218171C471012181810490002156
:10E7300001A8FDF782FF002803D000221146FEF752
:10E74000F3FC0EB010BDF0B5534C8BB0A078002890
:10E750003ED153481821183800F059FC2046504C3F
:10E76000C078183C0025012600283BD027464837B2
:10E7700000950195029510226946F81D039500F059
:10E7800051FC002826D0F81D0890099768460675A8
:10E7900009A804906846067708A806900420FFF7A9
:10E7A000B0FF25700220207204A8E060282020829B
:10E7B0003B486582183873DF002803D000221146D9
:10E7C000FEF7B2FC012038494005C8603248867027
:10E7D0000BB0F0BD0520FFF794FF2670676025722F
:10E7E0002582E5E70620FFF78CFF2570656025721E
:10E7F000DCE7F0B50546284C008800270122E688B2
:10E80000A7B0172810D024DC11284FD00EDC022826
:10E810007ED0102808D124498004C860152000F05B
:10E8200057F9A888E080A77027B0F0BD1C4C3034A1
:10E8300027461837132855D01428F5D1E889628D5A
:10E840000021904200D139460023A888E21D82DFD2
:10E850001BE0512873D00EDC18286FD01928E3D1A3
:10E86000A8790028E0D1A770E068401EE06054D08D
:10E87000FFF769FFD8E752287BD05528D4D1A87973
:10E880000028D1D11321304676DF0028CCD00022D9
:10E890001146FEF749FCC7E7A02C0020FFFF00004F
:10E8A00064320020301500000005005080206946C9
:10E8B00088803220E060162000F00AF9012301AAC6
:10E8C00006A9E088AADF002803D000221146FEF73F
:10E8D0002BFC2078002801D1FFF735FF0020C04332
:10E8E000E080A1E70722D84910A800F077FB1022AA
:10E8F000E11D0CA800F072FB1C22394612A800F0A2
:10E900006DFB0CA80A9012A806ABD04A852100E046
:10E910000FE0099030467FDFB7E71422CC4906A804
:10E9200000F05CFB0A9806AC00900FCCFFF7CAF829
:10E930007AE70021304667DFA7E700E019E0A97910
:10E94000002997D0A87A042803D0062801D00528EA
:10E9500090D1022909D068460272FF2083306946AF
:10E96000888102A93046A8DF8FE702206946087235
:10E97000F3E700F0B2F888E710B50446FDF7F6FFBC
:10E98000B14821463038FEF727F92046FFF731FF1E
:10E9900010BD10B500221146FEF7C6FB10BD70B5C4
:10E9A000AA4E00241C3E88B03470AA483471032556
:10E9B0000560001D0560152000F08AF8162000F0A3
:10E9C00087F8A54800F054FA00287BD1A348FFF748
:10E9D000F7FA00F057F9002874D19B48FDF7F2FBD5
:10E9E000002872D0684671DF002803D0002211464B
:10E9F000FEF79AFB69464878401C4870002070DF9B
:10EA0000002803D000221146FEF78EFB1120694634
:10EA10000872072292A102A87CDF002803D00022FE
:10EA20001146FEF781FB00940C2168460194018099
:10EA300018214180FF2184809131C1807ADF002834
:10EA400003D000221146FEF76FFB062069460094B2
:10EA5000088085480190854802907B483038FEF751
:10EA60007BF8002803D000221146FEF75DFB1C2135
:10EA7000684600F0CCFA7E480190012080030290A5
:10EA8000009468460573C48104747A48069005941E
:10EA90006846FDF714FF002803D000221146FEF758
:10EAA00043FB6A49E1220878400840001040DF2219
:10EAB0000C30104008700720487010208870FFF755
:10EAC00042FE002008B070BDFFE70120F0709DE716
:10EAD0000121814068488160704770B55B4C674D8B
:10EAE0001C3CE088A84201D10820ECE7E17800292D
:10EAF0001BD05549012308223431A9DF0028E2D177
:10EB0000022300221146E088A9DF0028DBD12A4633
:10EB10000C21E088A7DF5A49884204D0082802D097
:10EB2000891C8842CFD10020CDE700231A46194620
:10EB3000A9DFC8E710B50A46044603211046FFF7CF
:10EB40008FFC024603212046FDF768FF002803D012
:10EB500000221146FEF7E8FA10BD30B5054687B031
:10EB60000020009001900290039038486A461C38BB
:10EB700040791070364A0C3A1068926804906846E2
:10EB80000692059008790C2807D003221CE0002289
:10EB90001146FEF7C9FA07B030BD8C68204600F078
:10EBA00049F80190201D00F045F8029020460830F9
:10EBB00000F040F8039004A8FFF705FA0028EAD017
:10EBC0000121FFF74DFC024601212846FDF726FFF3
:10EBD0000028DCD1DFE7FEB50446087982070ED0B5
:10EBE0008207920F04239B1A0022154604E08E68C8
:10EBF0003554401CC0B2521C9A42F8D3087101200F
:10EC00000090886802900879800801906846FFF7B4
:10EC100074FA00280DD00221FFF722FC02460221DF
:10EC20002046FDF7FBFE002803D000221146FEF728
:10EC30007BFAFEBD10B5044600F001FA0002E1784F
:10EC4000000A0906084310BD94320020BC2C0020A5
:10EC50001CF103005407005079E9030097E4030016
:10EC6000446675546172670029E6030093E9030066
:10EC7000CD0C0000C9E5030000050050FFFF0000B7
:10EC8000023000004B48002101704C484A4A0260A3
:10EC90008160C16001610822416142608161084672
:10ECA000704710B500291DD000220A60434A5368FE
:10ECB000002B1BD0202817D85B1E5360D06824235C
:10ECC000401CD060106914684343E3180B600123B3
:10ECD00083409169401C19434007400F91611061C6
:10ECE000002010BD0E2010BD0C2010BD042010BD52
:10ECF000F0B5324A0646916800292AD0576910209B
:10ED0000791A4907490F14680B4624254D436519A4
:10ED1000B54206D1012495698C406540002095617B
:10ED200004E0491C4907490F8F42EED1491C4E07A8
:10ED3000760F956901210C469C4025420AD19368C3
:10ED4000002B07D05B1E936053685B1C53603346F7
:10ED5000F1E70420F0BD194A2423117C1268491EF2
:10ED60004907490F5943203150500020704770B572
:10ED700000281AD0002918D0104AD368002B16D0CA
:10ED80005B1ED360936824265B1C936053691568EF
:10ED90001C467343EE1820330660E858641C086074
:10EDA0006007400F5061002070BD0E2070BD042030
:10EDB00070BD0000C12C0020D0320020F0330020B4
:10EDC00010B508461146FDF71BFA10BDF8B5384CD2
:10EDD0002078002837D02069002807D00026E06876
:10EDE000002805D00025002E04D013E00126F6E708
:10EDF0000125F8E7684651DF052806D0002806D02F
:10EE000000221146FEF790F904E0012602E0216994
:10EE100000988847002D12D1608869460880A06854
:10EE200061DF052806D0002806D000221146FEF733
:10EE30007BF904E0012502E0E168A0688847002E24
:10EE4000D8D0002DCFD0F8BD70B5002901D08C07E7
:10EE500001D0072070BD164C0125A16062801549C4
:10EE6000636010DF0028F5D1257016202EDF70BDFD
:10EE7000002803D00E49C860002070470E2070475C
:10EE8000002803D00A490861002070470E2070470F
:10EE900010B507484068002807D08047002803D0F5
:10EEA00000221146FEF740F910BDFFF78FFF10BD9D
:10EEB000C82C0020C1ED030010B5002904D00022A9
:10EEC00011461046FEF730F9FFF780FF10BD10B570
:10EED0000021024A0846FEF747F910BDB9EE0300CB
:10EEE0000321094802680A430260084802680A438D
:10EEF00002600748804707480047FEE7FEE7FEE755
:10EF0000FEE7FEE7FEE70000240500405405004050
:10EF100019EF0300C1C0030010B500F01DF8002870
:10EF200005D01F491D484860C8131E4988611E4806
:10EF3000018CC9B201290ED1818C09070BD1018D39
:10EF40000906090F042906D1808D0006000F02D1A1
:10EF500016490120886010BD1348018CC9B20129EF
:10EF600017D1818C090714D1018D09060A0F03D12D
:10EF7000828D1206120F0ED0090F012903D1828D46
:10EF80001206120F07D0032903D1808D0006000F4F
:10EF900001D000207047012070470000DFFF07C04C
:10EFA00000050040006C0040C00F00F0000600406B
:10EFB00030B50B46014600202022012409E00D4611
:10EFC000D5409D4205D31D469540491B2546954099
:10EFD00040191546521E002DF1DC30BD03460B438F
:10EFE0009B0703D009E008C9121F08C0042AFAD2FF
:10EFF00003E00B780370401C491C521EF9D2704785
:10F00000D2B201E00270401C491EFBD270470022C0
:10F01000F6E710B513460A4604461946FFF7F0FF17
:10F02000204610BD30B504460020034600E05B1CBE
:10F03000934203D2E05CCD5C401BF8D030BD03218D
:10F04000001D401E037812021A43491EF9D51046CE
:10F0500070470000064C0125064E05E0E36807CC2A
:10F060002B430C3C98471034B442F7D3FDF72CF8EF
:10F0700030F1030050F1030030B47446641E25786B
:10F08000641CAB4200D21D46635D5B00E31830BCDC
:10F09000184702E008C8121F08C1002AFAD17047B9
:10F0A0007047002001E001C1121F002AFBD1704708
:10F0B000020000000000000000000000000000004E
:10F0C00023D1BCEA5F782315DEEF121200000000A6
:10F0D0000DDA030000000000000000000200000044
:10F0E0000000000000000000000000000000000020
:10F0F000040000000000000000000000000000000C
:10F10000000000004DDD03000000000000000000D2
:10F1100003000000000000000000000005000000E7
:10F1200000000000000000000000000000000000DF
:10F1300050F10300002C0020E000000092F00300DA
:10F1400030F20300E02C0020300F0000A2F003009A
:10F1500000000000000000000000000000000000AF
:10F16000000000000000000000000000000000009F
:10F17000000000000000000000000000000000008F
:10F18000000000000000000000000000000000007F
:10F19000000000000000000000000000000000006F
:10F1A000000000000000000000000000000000005F
:10F1B000000000000000000000000000000000004F
:10F1C000000000000000000000000000000000003F
:10F1D000000000000000000000000000000000002F
:10F1E000000000000000000000000000000000001F
:10F1F000000000000000FFFF0000000032000000DF
:10F2000000000000000000000000000000000000FE
:10F2100000000000000000000000000000000000EE
:10F220000000000000000000000000000024F400C6
:020000041000EA
:0410140000C0030015
:040000050003C0C173
:00000001FF
